:020000040800F2
:10000000000003205D0600081524000817240008DE
:10001000192400081B2400081D240008000000000B
:100020000000000000000000000000000181000846
:100030001F2400080000000091810008277A0008B2
:10004000AD060008AD060008AD060008AD060008C4
:10005000AD060008AD060008AD060008AD060008B4
:10006000AD060008AD060008AD060008AD060008A4
:10007000AD060008AD060008AD060008AD06000894
:10008000AD060008AD060008AD060008AD06000884
:10009000AD060008AD060008AD060008AD06000874
:1000A000AD060008AD060008AD060008AD06000864
:1000B000AD060008AD060008AD060008AD06000854
:1000C000AD060008AD060008AD060008AD06000844
:1000D000AD060008AD060008AD060008AD06000834
:1000E000AD060008AD060008AD060008AD06000824
:1000F000AD060008AD060008AD060008AD06000814
:10010000AD060008AD060008AD060008AD06000803
:10011000AD060008AD06000821240008AD06000861
:10012000AD060008AD060008AD060008AD060008E3
:10013000AD060008AD060008AD060008AD060008D3
:10014000AD060008AD060008AD060008AD060008C3
:10015000AD060008AD060008AD060008AD060008B3
:10016000AD060008AD060008AD060008AD060008A3
:10017000AD060008AD060008AD060008000000004E
:10018000AD060008AD060008AD060008AD06000883
:10019000AD060008AD060008AD060008AD06000873
:0C01A0002D240008AD06000839240008DA
:1001B00010B5054C237833B9044B13B10448AFF3A1
:1001C00000800123237010BD800300200000000088
:1001D000C055020808B5034B1BB103490348AFF3F0
:1001E000008008BD0000000084030020C055020804
:1001F00001F0FF01102A2BDB10F0070F08D010F8D8
:10020000013B013A8B422DD010F0070F42B3F6D1DB
:10021000F0B441EA012141EA014122F007047FF0F4
:1002200000070023F0E80256083C85EA010586EA4B
:10023000010685FA47F5A3FA87F586FA47F6A5FA87
:1002400087F68EB9EED1F0BC01F0FF0102F0070293
:1002500032B110F8013B013A83EA010313B1F8D13E
:100260000020704701387047002D06BF354603381F
:10027000073815F0010F07D1013015F4807F02BF58
:10028000013015F4C03F0130F0BC0138704700BFA9
:100290007BB972B90029BEBF00204FF0004106E0D3
:1002A00008BF00281CBF6FF000414FF0FF3000F086
:1002B000D3B9ADF1080C6DE904CE002909DB002BA0
:1002C0001ADB00F04DF8DDF804E0DDE9022304B0AC
:1002D0007047404261EB4101002B1BDB00F040F80E
:1002E000DDF804E0DDE9022304B0404261EB4101A6
:1002F000524263EB43037047524263EB430300F007
:100300002FF8DDF804E0DDE9022304B0404261EBA0
:1003100041017047524263EB430300F021F8DDF8DE
:1003200004E0DDE9022304B0524263EB430370476B
:1003300053B94AB9002908BF00281CBF4FF0FF314C
:100340004FF0FF3000F088B9ADF1080C6DE904CE34
:1003500000F006F8DDF804E0DDE9022304B07047A0
:100360002DE9F047089D8E4604468846002B4AD169
:100370008A42174662D9B2FA82F64EB1C6F120031C
:1003800001FA06F820FA03F3B74043EA0808B4403C
:100390004FEA174E1FFA87FCB8FBFEF1230C0EFB49
:1003A000118843EA084301FB0CF29A4209D9FB1871
:1003B00001F1FF3080F0EA809A4240F2E780023992
:1003C0003B449A1AA3B2B2FBFEF00EFB102243EAA2
:1003D000024300FB0CFC9C4509D9FB1800F1FF32DD
:1003E00080F0D6809C4540F2D3803B44023840EAFE
:1003F0000140A3EB0C0300211DB1F3400022C5E92D
:100400000032BDE8F0878B4205D90DB1C5E9000186
:1004100000210846F5E7B3FA83F1002946D1734578
:1004200002D3824200F20581841A6EEB030201209E
:100430009046002DE5D0C5E90048E2E7002A00F02B
:100440009080B2FA82F6002E40F0A4808A1A030C43
:100450004FEA174E80B2BCB20121B2FBFEFC0EFB8C
:100460001C2243EA024304FB0CF29A4207D9FB1810
:100470000CF1FF3802D29A4200F2E080C4469B1A87
:10048000B3FBFEF20EFB123340EA034302FB04F41B
:100490009C4207D9FB1802F1FF3002D29C4200F2C5
:1004A000CA8002461B1B42EA0C40A5E7C1F12006A8
:1004B0008B4022FA06F71F430EFA01F420FA06F3E6
:1004C0002EFA06FE4FEA1749234300FA01F81FFAF5
:1004D00087FCBEFBF9F01C0C09FB10EE44EA0E444D
:1004E00000FB0CFEA64502FA01F209D93C1900F105
:1004F000FF3A80F09C80A64540F2998002383C4447
:10050000A4EB0E041FFA83FEB4FBF9F309FB1344BA
:100510004EEA044403FB0CFCA44508D93C1903F142
:10052000FF3E80F08280A4457FD9023B3C4443EAF1
:100530000040A4EB0C04A0FB02EC64457346E146CA
:1005400062D35FD05DB1B8EB030264EB090404FA37
:1005500006F622FA01F31E43CC40C5E900640021EF
:100560004FE7B1FBF2FC010C41EA0E4180B240EAD8
:1005700001423B4638463C46B846BE462026B1FBC3
:10058000F7F1A2EB080241EA0C4166E7014618E7E1
:1005900010462CE7C6F120022EFA02F3B740B14014
:1005A00020FA02F24FEA174E0A43B3FBFEF8BCB240
:1005B0000EFB1833110C41EA034108FB04F9B0406B
:1005C00089454FEA104380B23ED9791808F1FF3CC3
:1005D00001D289451FD8A1EB0901B1FBFEF909FB46
:1005E00004F80EFB191192B242EA0142424529D2A7
:1005F000BA1809F1FF31C4D24245C2D2A9F10201B1
:100600003A44BEE7F0459DD2BEEB02036CEB070C0B
:100610000138E14696E7A7EB09094944A8F1020C25
:10062000B1FBFEF909FB04F8DBE773467FE75046B0
:1006300066E70846FDE63B44023A33E7ACF1020CBC
:100640003B441CE749469CE7A1EB0901C446B1FBCA
:10065000FEF909FB04F8C4E7704700BFDFF834D0A7
:10066000002103E00C4B5B58435004310B480C4B0A
:1006700042189A42F6D30B4A02E0002342F8043BA8
:10068000094B9A42F9D304F081FC24F02BFA01F0D3
:1006900067F87047000003200CC60808000000201F
:1006A000640100208003002078720120FEE770477B
:1006B00008B500F0BFFDBDE8084000F041BD00F006
:1006C000BBBD704710B50421044623F01FF8204637
:1006D00010BD000038B50C4B0C4C18800C4B822020
:1006E00019806368984740F6110398420AD1094D72
:1006F00023682C60822098472B688220DB6898470B
:10070000002038BD0120FCE7A60300204C0000209B
:10071000A4030020A80300204FF4A071F020FFF7ED
:10072000D9BF0000F7B5394D2B6804461B698220FC
:100730009847208000284ED02B680DF106025B6997
:1007400001A982209847324B1B78002B4BD0BDF873
:10075000062040F674639A423FD9ADF80630BDF8E2
:1007600006209B1A9BB20A2B42D90B22B3FBF2F351
:10077000284A1288934201D9013A93B2BDF8042065
:10078000254840F6B8318A4234D8C2F571620E323B
:10079000016892B20F25B2FBF5F2204D2D88AA42D6
:1007A00084BF05F1FF35AAB28A4215468EB22AD916
:1007B000921B91B21A4E3768BB42BAB28CBF9A1ADA
:1007C000D21A92B211440529C4BF05603360036890
:1007D00063803368A38003B0F0BDB32A9CBFB4220A
:1007E000ADF80620BBE7BDF80630A3F5B473B9E752
:1007F0000023C3E7C2F56D62083292B20E2A016887
:10080000C8D800252A46891A89B2D3E7A803002050
:10081000E8530020A4030020A0030020A60300202A
:100820009C03002037B568460D461446FFF77AFF53
:10083000BDF8000030B1BDF802302B60BDF80430C7
:100840002360012003B030BD032821D8DFE800F089
:10085000020B12190F4B1A68B2FA82F252090421E4
:100860000D4805F059B80B4B5A68B2FA82F252099A
:100870000821F5E7074B9A68B2FA82F25209102173
:10088000EEE7044BDA68B2FA82F252092021E7E778
:10089000704700BFAC03002000100240032821D89D
:1008A000DFE800F0020B12190F4B1A68003A18BF6C
:1008B000012204210D4805F02FB80B4B5A68003A6D
:1008C00018BF01220821F5E7074B9A68003A18BFC4
:1008D00001221021EEE7044BDA68003A18BF01222A
:1008E0002021E7E7704700BFAC0300200010024062
:1008F00003280DD8DFE800F00206080A04210548A5
:1009000005F00FB80821FAE71021F8E72021F6E7F3
:10091000704700BF0010024008B5032811D8DFE877
:1009200000F0020A0C0E0421074804F0EFFF431EFA
:100930005842584108BD0821F6E71021F4E720216C
:10094000F2E70020F3E700BF0010024070B5084D49
:1009500000240126E0B2FFF7DFFF18B12B68012B5E
:1009600018BF2E600134052C05F10405F2D170BDCD
:10097000AC030020012380F8781080F879307047AC
:100980007047002070470000034B4164003918BFD6
:1009900001211970704700BF3765012070470020A2
:1009A0007047836B0BB10846184770474FF6FF70CE
:1009B0007047406803689B691847704770477047E5
:1009C0007047704710B5044600F04CFD236803499A
:1009D000D3F890302046BDE810401847000000D002
:1009E00008B503680446D3F8843098472368204646
:1009F000DB6F984700F0ECF8236820465B6F984760
:100A0000292001F099F900F0E3F8236820465B6F94
:100A10009847F8E710B504460AF06AF923682046BB
:100A2000D3F8BC30BDE81040184700F0FFBC00F020
:100A300003BD00F035BD00F0D5BC00F045BD00F0B1
:100A40004DBD00F0D9BC09F081BB10B5842104462E
:100A500022F05CFE204610BD10B590F8341090F8DE
:100A600078400C4B8C421A7809D03AB90A4A0B49A3
:100A70001488088810800C8001221A7010BD002A8A
:100A8000FCD0054A05491488088810800C80002293
:100A9000F3E700BF306501202C6501202E650120A1
:100AA00070B50D46194635B9094B0A4A0A4840F255
:100AB000FF2123F067FDC0E90F52084B003A18BF31
:100AC00001221A700368BDE87040D3F890301847CF
:100AD0003056020868560208B656020836650120EC
:100AE00008B5094B1B888B4203D8084B1B889342DF
:100AF00005D9074B074A0848A32123F043FD074BBC
:100B00001980074B1A8008BD2C6501202E65012035
:100B1000FB5602085E570208B656020832650120ED
:100B200034650120034690F87A0018B158680368CC
:100B30001B68184770470000012108B500220846CD
:100B400006F0FAFF0A4B186028B90A4B0A4A282116
:100B50000A4823F017FD00220421012007F08BF83A
:100B6000074B186018B9074B034A2C21F0E708BD62
:100B7000C0030020A1570208EA57020819580208CA
:100B8000BC03002066580208024B4FF0FF31186882
:100B900007F01CB8C0030020014B186807F042B8EA
:100BA000C0030020024B0021186807F00FB800BFF7
:100BB000C0030020FFF7F0BF03480449006800238A
:100BC0001A4607F093B800BFBC03002004000020C1
:100BD00013B5084C00231A4601A9206807F0B7F89E
:100BE00020684FF0FF33002201A907F0B0F802B0EF
:100BF00010BD00BFBC03002003685B6C18470120D8
:100C0000704703689B6A1847FEE740F2EF30704771
:100C1000054B0360054B4FF08062C3F88820BFF39B
:100C20004F8FBFF36F8F70474464020800E100E00C
:100C300010B504464FF45A61FFF7EAFF204622F050
:100C400065FD204610BD000082B0002301930E4BCD
:100C50001A6B42F400021A631A6B02F4000201924A
:100C6000019A1A6942F400021A611A6922F4000218
:100C70001A61064B064A1A61064A5A61064B4FF042
:100C800080629A6002B0704700380240C45500206C
:100C9000E90E0008090C000800E100E008B50A2888
:100CA00009D8DFE800F006100E0808080810101038
:100CB0001000022008BD054B054A0648902123F08C
:100CC00061FC0020F6E70120F4E700BFA858020805
:100CD000C35802080E59020838B50C46887FFFF742
:100CE000DDFFA58AE28A164B2169586342EA054274
:100CF0005A64628BD963521B1A642568082D0ED181
:100D00009A611A615862207F0E4A42EA0062DA61F3
:100D1000E2681A620C4A5961D9601A6038BD002233
:100D2000D8611A61E1680A0A480902F4784200F4BD
:100D3000FC600243C1F3C4010A439A63034AECE72F
:100D400000B002400900010001230200012303005A
:100D500008B50B280BD8DFE800F00612100A0A0AC3
:100D60000A0808080808022008BD0520FCE7054B12
:100D7000054A06486F2123F005FC0020F4E7012016
:100D8000F2E700BFA8580208595902080E59020894
:100D90002DE9F04191F81D800C464046FFF7D8FF41
:100DA000A77F05463846FFF7D3FF06463846FFF7CC
:100DB00075FFA18A628B444B521A1A649A61228B86
:100DC000521A1A61E28A586342EA01425A6421695E
:100DD0006268D963DA602068802828D0227F0FD823
:100DE000202867D0402865D004281AD0364B45EA21
:100DF000026545F40035B845DD6161D0334A44E011
:100E0000B0F5807F04D0B0F5007FEFD1304800E02E
:100E1000304840EA0262DA61E2681A625E62596151
:100E200032E045EA026242F40032DA61F6E7A06895
:100E3000021DDA62227F45EA026545F40035DD6174
:100E40005E625961017841B1012921D0224B234AC8
:100E500023484FF48D7123F095FBDA69418822F421
:100E60007F42013922F0100242EA0122DA610121B7
:100E7000154BDA6942F02002DA61DA699206FCD495
:100E800010229A600029B9D0164A1A60BDE8F08194
:100E9000B2F1FF01DA69408822F47F4200F1FF30AD
:100EA00022F0100242EA002242F0100218BF012193
:100EB000DA61DDE745EA0262034B42F40032B4E74F
:100EC00042F20132E1E700BF00B00240012301001D
:100ED000090002000A000200A3590208BD590208D5
:100EE0000E59020801230200024B1B685868036870
:100EF0005B6918473865012070B5044625460A4BE2
:100F00000C30002660602672667245F8203B602235
:100F100029460AF043F804F55A63EE6024359D42F1
:100F2000FBD1204670BD00BF44640208034B1A6821
:100F3000D207FCD423229A60704700BF00B0024061
:100F40007047000030B50F4C2568ED07FCD4232511
:100F50000904A56041F001010225FF2B656361646E
:100F6000E0630AD00849656241EA0363E361074B25
:100F700022626061E060236030BDE561039BA36392
:100F8000034BF8E700B00240090001000100020035
:100F90000100030030B50E4C2568ED07FCD4232575
:100FA0001204A56042F001020225FF2B6563626412
:100FB000E063E16008D01B0643F00213E361054BD8
:100FC00065626061236030BD034BE3610123F9E793
:100FD00000B0024001000200020002FF30B50B4CDD
:100FE0002568ED07FCD4232512041B06A56043F4F5
:100FF0000033022542F0010265636264E063E16050
:10100000E361034B65626061236030BD00B0024064
:1010100001000200012070470C2070470C2303FBE5
:101020000100083070470C2303FB010008307047B3
:101030000120704743F6D860704743F6D86303FB3E
:1010400001000830704743F6D86303FB0100083005
:101050007047012070471020704700EB01100830E6
:10106000704700EB011008307047084601F042BBA2
:1010700010B5034B0360044608F0BDFD204610BDCB
:10108000FC64020810B50446FFF7F2FF2046142165
:1010900022F03CFB204610BD10B5034B0360044614
:1010A00008F0A9FD204610BDC864020810B504462A
:1010B000FFF7F2FF204643F6E06122F027FB2046CF
:1010C00010BD000010B5034B0360044608F093FD0B
:1010D000204610BD9464020810B50446FFF7F2FFE5
:1010E0002046182122F012FB204610BD10B5094BF6
:1010F0000360044600F57C500C30FFF7B9FF04F1A3
:101100002C00FFF7C9FF04F11400FFF7DBFF2046B6
:1011100010BD00BF3065020808B50248FFF7E6FFC2
:1011200008BD00BF9C12002010B50446FFF7DEFF8B
:10113000204644F2840122F0E9FA204610BD000066
:101140002DE9F34101F0F2F9054601F0F3F900242D
:101150000146234628462246009413F025FA274BE1
:10116000274A1A60204602F08FFD264D264B274A5B
:1011700027489A6013F080F92B68BFF35B8FDB0779
:1011800036D4284622F0C4FA90B3224C224F234B87
:10119000236007F11C0604F1140004F12C086060C0
:1011A000C4F80880E760266108F026FD1C4B6361E7
:1011B000404608F021FD1B4BE362384608F01CFD59
:1011C00004F5405303F57260174AC3F80C2F02F080
:1011D000E3FD224607F11401304602F0D3FD30460C
:1011E00001F088FA114823F0EBF9284622F09CFA26
:1011F0000F4802B0BDE8F041FFF7E4BB9C65012059
:101200004804002098120020680400204C040020AC
:10121000080000209C120020A85100203065020820
:1012200094640208C8640208FC64020819110008EA
:10123000C4030020704700000148FFF7D1BB00BF86
:10124000C403002070B5264E264C274D274B236043
:101250003046FFF751FE284618F0ACFA244810F04B
:10126000C3FD244B2448DC6000224FF48071C3E9A5
:10127000121222491A86C3E91A12214983F858200A
:10128000C3E91E011F49C3F880101F491F480B60A6
:10129000F021C3E90422C3E90622C3E90822C3E915
:1012A0000A22C3E90E22C3E91022C3E91422C3E9CA
:1012B00017225A6683F870205A67C3E901650180D6
:1012C0001348018013484FF4A07101801248018037
:1012D00012490A70012283F83420114A1A6070BD45
:1012E000F404002094120020680400202056020814
:1012F0004C040020C4030020000001010100000193
:10130000000450001A001400386501202C650120EB
:10131000326501202E6501203465012030650120F1
:10132000586302080148FFF773BC00BFF4040020B3
:101330000020704781807047C180704701817047ED
:10134000418170477047704770477047704710B4CD
:10135000C4880368121B84885B6D091B12B25DF898
:10136000044B09B218474FF6FF7383814FF0FF33E8
:1013700003621368C36110607047002070478B8858
:10138000838001207047704780F82610704790F8DE
:101390002600704710B50022B1F90840B1F90A10D3
:1013A000028042808480C18010BD00220280428081
:1013B0008280C28070470177704780ED080A7047CD
:1013C00080F82410704780F825107047012070477E
:1013D000983070478C307047843070477047704742
:1013E00070470000034B902283F85A2383F8582358
:1013F000704700BF00E100E0094A0A49D3680A4883
:10140000C3F30A03013B9BB20B801169C1F30A01CC
:10141000013901801364536B43F001035363704738
:10142000006801402253002020530020014BD3F8D4
:10143000AC00704700680140024B0122C3F8AC10B9
:101440005A6270470068014010B52C21044622F012
:101450005DF9204610BD10B5BC21044622F056F9B6
:10146000204610BD70B5044608F0C5FE23689D6E89
:101470000FF052FA01462046A8472368054AD3F8E0
:101480008C502046AC460023BDE87040A2F51631D2
:10149000604700BF00B004D008F094BE08F09EBEC4
:1014A00008F05ABE08F0C9BF90F8252012B10368B1
:1014B0005B691847704790F825201AB190F82420EE
:1014C00002B1186070470000034B4FF080629A60D1
:1014D0004FF080729A60704700E100E0084B4FF0D7
:1014E0008062C3F88820BFF34F8FBFF36F8F4FF038
:1014F0008072C3F88820BFF34F8FBFF36F8F7047A0
:1015000000E100E070B50023124E8380124B0360AF
:10151000336893F8582005460AB1D86C00B998682A
:101520000368DB6A98473368B0FA80F4D86C6409C2
:1015300030B10368DB6A9847002808BF44F0010413
:101540002CB9064B064A07482C2123F01BF82846E5
:1015500070BD00BF3865012044650208FB590208D0
:10156000595A0208925A020870B5254E3568BFF3E1
:101570005B8F15F0010540D1304622F0C9F80028F4
:101580003BD0204C204B256104F13400C4E90035E8
:10159000C4E90255E584A562A58510F00AFF04F1AF
:1015A00058000BF0B1F9194BA3652046184B40F8D1
:1015B000843BFFF7A7FF174BC4F884302433C4F8EB
:1015C0008C304FF4C803C4E928350023C4F8AC308C
:1015D000C4F8B030C4F8B430C4F8B8300E480F4B7B
:1015E000C4F89050C4F89C50C4F8A850C4F898307F
:1015F00022F0E6FF304622F097F8024870BD00BFA7
:101600002453002028530020846E020864650208D9
:10161000DC650208386E0208E1130008186E020843
:1016200038B5184C23685BB3174B184A1B6C1188EC
:101630008B4216D1164B198804F076FF236893F875
:101640006A200025013283F86A2083F87C50FFF776
:10165000B3FA206809F04CFB2846BDE83840FFF794
:10166000F3B804F061FF2468236820461B6A98479A
:10167000012384F87C300020BDE83840FFF70EB924
:1016800038BD00BF386501200068014022530020AA
:101690002053002007B5064BADF806001B6805482F
:1016A00001220DF1060105F0EFFC03B05DF804FB2B
:1016B0000C0000207054002008B5642006F030FAB9
:1016C000FBE7000030B595B0102200210AA823F0F6
:1016D00060F91422002103A823F05BF900241E4BBB
:1016E00001941A6C42F080521A641B6C03F0805310
:1016F0000193019B194B02941A6842F440421A600C
:101700001B6803F4404302930122029B4FF4803391
:10171000CDE9082302254FF480030821CDE90E53BB
:101720004FF4B473CDE9101308A804231393129552
:1017300004F052FF04F016FF0F23CDE903354FF4F8
:10174000A0504FF48053CDE90603052103A805946A
:1017500005F01EF915B030BD0038024000700040A1
:101760002DE980489BB003F01FFCFFF7ABFF14226C
:1017700000210DA823F00DF90024CA4B00941A6B28
:10178000C94842F010021A631A6B02F0100200926C
:10179000009A01941A6B42F020021A631A6B02F04D
:1017A00020020192019A02941A6B42F080021A639D
:1017B0001A6B02F080020292029A03941A6B42F0B2
:1017C00004021A631A6B02F004020392039A04944F
:1017D0001A6B42F001021A631A6B02F001020492C2
:1017E000049A05941A6B42F002021A631A6B02F013
:1017F00002020592059A06941A6B42F040021A639F
:101800001A6B02F040020692069A07941A6B42F095
:1018100008021A631B6B03F00803224607933C215E
:10182000079B04F079F8A1480122022104F074F822
:1018300022469E48042104F06FF822469C484FF44B
:10184000405104F069F822469A4842F2040104F03B
:1018500063F801263C23CDE90D3693480F9403230A
:101860000DA90227109303F06DFF90480DA9CDE953
:101870000D760425CDE90F4403F064FF8B480DA9D4
:10188000CDE90D56CDE90F4703F05CFF4FF440530F
:1018900087480DA9CDE90D36CDE90F4703F052FF7A
:1018A00084480DA9CDE90D56CDE90F4403F04AFF58
:1018B0000DA94FF400537F487F4DCDE90D36CDE99A
:1018C0000F4703F03FFF7D487D4B036003F030FE80
:1018D000DFF80CC27B4B2C62C5E900C328464FF4ED
:1018E0008043C5E90434C5E90244C5E9064404F06F
:1018F00021FA1021284604F065FC2146284604F010
:1019000080FC714DDFF8DCE1AC624FF48273C5E915
:1019100000E34FF400781823C5E9068328460A231C
:10192000C5E90244C5E90444C5E90844EB6205F091
:101930004FFB8F23224639465C488DF824308DF8C2
:10194000344003F0E9FF32464FF47A7309A9284680
:1019500005F09AFB4FF47A7332460DA9284605F03C
:101960003FFD324639465148584D03F0D5FF9DF8AA
:101970003430D32B04BF564B1E70564B0126C5E99D
:1019800000364FF0100840230024C5E904834FF4CB
:10199000C073C5E906344FF40063C5E908344FF459
:1019A000005302274FF0040AAB624FF0030B0723EA
:1019B0000DA92846CDE90D73CDE90FA34FF0080915
:1019C000C5E9024ACDE911B7139705F0E5F94FF6DD
:1019D000FF7209A92846CDE90A96089409960C9445
:1019E00005F0FAF9304603F00BFB4FF6FF7209A938
:1019F0002846CDE90979CDE90B6405F0EDF94FF6FC
:101A0000FF7209A92846CDE909B9CDE90BA405F073
:101A1000E3F94FF40C730893089B0C934FF6FF7295
:101A200009A92846CDE909A90B9605F0D5F940F298
:101A30006A51284605F0EEF9342221460DEB0200EA
:101A400022F0A7FF244D254B2C61C5E90034092362
:101A5000C5E905361D23C5E9073B40F20D1240F2EA
:101A60004313C5E9092340F2171140F247132846F2
:101A7000C5E90B13C5E90244AC8685F8364004F08D
:101A80005BFCFF21F022CDE912144FF005094FF461
:101A900080614FF4A073CDE90E24CDE91419CDE98E
:101AA000164221E0003802400010024000080240C7
:101AB000000C02400018024070550020045600201F
:101AC00000300240A086010070540020F453002032
:101AD000E8530020400100A0C854002000680140E5
:101AE000005C0040005001400DA922462846CDE987
:101AF0001037444D18930D94ADF864408DF866404E
:101B000004F0E5FC404B2B601B6898472B683F4D69
:101B1000DB6898473E4B2846C5E90034C5E90274A6
:101B2000C5E90A47C5E90C4403F012FD31462846D1
:101B300003F0C4FD374D384F424621460DA822F030
:101B400028FF364BAC604FF4803A2846C5E9003A8E
:101B50002C612C7685F82040EC62AF62EC60EE617F
:101B600085F830406E6103F05FFA0D230DA9284619
:101B7000CDE90D362A4D0F9403F0ECFB4246214689
:101B80000DA822F006FF274BAC602846C5E9003AB5
:101B9000C5E90A742C612C7685F82040EC60EE6172
:101BA00085F830406E6103F03FFA0DA92846CDE973
:101BB0000D961D4D0F9403F0CDFB1C484FF4E133FF
:101BC000C0E900530C23C0E90534C0E902440461B4
:101BD000C46105F061FEFEF76BFDFEF768FD05F0E0
:101BE0002FFF134A1348214605F056FF124B134AA4
:101BF00018602146124805F04FFF124B186005F09F
:101C000031FFFEE7E453002014000020C4550020FB
:101C100000B00240545600200100000F0020014097
:101C20000C560020002101400010014028540020E3
:101C300044660208B9160008F05300202066020826
:101C4000BF060008EC530020704770477FB5094B72
:101C50008DF817201B6802930DF1170201230092E3
:101C600001930A460146044804F00CF907B05DF8F8
:101C700004FB00BF10000020705500207FB500233A
:101C80008DF81730084B1B6802930A4601230DF1AB
:101C90001701009101930146044804F083F99DF86F
:101CA000170007B05DF804FB1000002070550020FD
:101CB0001FB5084C24680092CDE901340A4601237F
:101CC0000146054804F06EF9003818BF012004B041
:101CD00010BD00BF100000207055002003F090B927
:101CE00010B5064C00222046042103F015FE2046C4
:101CF0000122BDE81040042103F00EBE000802409E
:101D000038B50B4D044601220A484FF4005103F048
:101D100003FE00220421284603F0FEFD2046FFF7C3
:101D2000B9FC28460122BDE83840042103F0F4BD87
:101D300000080240000C024038B50B4D044600225A
:101D40000A484FF4005103F0E7FD00220421284621
:101D500003F0E2FD2046FFF79DFC28460122BDE886
:101D60003840042103F0D8BD00080240000C0240B6
:101D7000F7B5144E144F05460C4630460022042198
:101D800003F0CAFD00224FF40051384603F0C4FDB1
:101D90002846FFF77FFC0D4B0D481B68224601A922
:101DA00005F01EFB384601224FF40051019C03F060
:101DB000B3FD30460122042103F0AEFD204603B0FE
:101DC000F0BD00BF00080240000C02400C000020E3
:101DD0007054002003F014B90268034B9A4201D1F9
:101DE00003F0FCB8704700BF0010004070470000CF
:101DF00082B00E4B00220092596C41F4804159642C
:101E0000596C01F48041009100990192196C41F0E4
:101E1000805119641B6C03F080530193019B0F21C7
:101E20006FF0010002B003F043BB00BF0038024076
:101E300010B514228AB0044600210DEB020022F0F6
:101E4000A8FD2368214A93421FD1214B214800213C
:101E500001915A6C42F480725A645A6C02F4807296
:101E60000192019A02911A6B42F004021A631B6BF1
:101E700003F0040302930821029B0323CDE9051319
:101E800005A903F05FFC0AB010BD134A9342FAD1D2
:101E90000F4B1248002103915A6C42F400725A64AD
:101EA0005A6C02F400720392039A04911A6B42F086
:101EB00001021A631B6B03F001030493049B2022AD
:101EC0000323CDE9052305A9DBE700BF002001407E
:101ED000003802400008024000210140000002409A
:101EE0000268094B9A4282B00BD100230193074B41
:101EF0001A6B42F480521A631B6B03F480530193F4
:101F0000019B02B0704700BF003002400038024021
:101F100007B50F4B02689A4216D10022A3F5F04391
:101F20000192196B41F4000119631B6B03F4000368
:101F3000019305215A20019B03F0BAFA5A2003B0FD
:101F40005DF804EB03F0E6BA03B05DF804FB00BFF4
:101F500000B002402DE9F043044689B0142200216C
:101F600003A822F016FD2268244B9A4243D1244C48
:101F7000244800250095236B43F004032363236B5F
:101F800003F004030093009B0195236B43F00103CE
:101F90002363236B03F001030193019B4FF01209AC
:101FA0004FF400734FF001080327042603A9CDE97D
:101FB0000339CDE90587079603F0C4FB4FF480731E
:101FC0001148079603A9CDE90339CDE9058703F048
:101FD000B9FB0295236C43F400032364236C03F4E0
:101FE00000030293029B236A43F400032362236AE3
:101FF00023F40003236209B0BDE8F083005C0040D5
:10200000003802400008024000000240F0B599B0DC
:1020100004461422002107A822F0BBFC30220DEB5D
:102020000200002122F0B5FC22685E4B9A4240F08B
:10203000B78008230C93C0231093042312930CA899
:102040004FF40033159304F07BFD08B1FFF7CEFE8B
:10205000554B5648002400945A6C42F080625A64F2
:102060005A6C02F080620092009A01941A6B42F05E
:1020700020021A631A6B02F020020192019A029464
:102080001A6B42F001021A631A6B02F0010202920B
:10209000029A03941A6B42F002021A631A6B02F05E
:1020A00002020392039A04941A6B42F040021A63EC
:1020B0001A6B02F040020492049A05941A6B42F0E3
:1020C00004021A631A6B02F004020592059A069440
:1020D0001A6B42F008021A631B6B03F008030693A5
:1020E00002250E26069B0B964FF4806307A9CDE9C7
:1020F0000735CDE9094503F025FB41F658032C4887
:102100000B9607A9CDE907350927CDE9094503F065
:1021100019FB032327480B9707A9CDE90735CDE91C
:10212000094503F00FFB4FF4706322480B9607A993
:10213000CDE90735CDE9094503F004FB4FF40C6305
:102140001D480B9607A9CDE90735CDE9094503F0F0
:10215000F9FAC02319480B9607A9CDE90735CDE94F
:10216000094503F0EFFA082315480B9607A9CDE9B6
:102170000735CDE9094503F0E5FA4FF4A0530E48C1
:102180000B9707A9CDE90735CDE9094503F0DAFA40
:1021900058202246052103F08BF9582003F0BAF9A4
:1021A00019B0F0BD00680140003802400014024040
:1021B00000000240000402400018024000080240F3
:1021C000000C024010B5044688B01422002103A878
:1021D00022F0DFFB2268144B9A4223D103F56843B7
:1021E000002101915A6C114842F480125A645A6CD1
:1021F00002F480120192019A02911A6B42F02002BD
:102200001A631B6B03F020030293029B4FF460726E
:1022100002230321CDE903230523CDE9061303A9F6
:1022200003F090FA08B010BD0050014000140240C5
:1022300010B5044688B01422002103A822F0A9FB9F
:102240002268144B9A4223D103F594330021019163
:102250005A6C114842F010025A645A6C02F0100293
:102260000192019A02911A6B42F001021A631B6BF0
:1022700003F001030293029B4FF4C0620223032187
:10228000CDE903230723CDE9061303A903F05AFA86
:1022900008B010BD00100140000002402DE9F041DF
:1022A00086B0002303932B4B1C68002C4FD14FF0BA
:1022B0000108C3F80080284B00949A6B274842EA33
:1022C00008029A639B6B03EA080300930227032624
:1022D0000C25009B01A94FF63F03CDE90137CDE95D
:1022E000046503F02FFA1E48059501A9CDE9018781
:1022F000CDE9034603F026FA48F233131948059551
:1023000001A9CDE90137CDE9034603F01BFA4FF6E9
:1023100083731548059501A9CDE90137CDE9034639
:1023200003F010FA4CF203731048059501A9CDE9AA
:102330000137CDE9034603F005FA60230C48059503
:1023400001A9CDE90137CDE9034603F0FBF906B059
:10235000BDE8F0819C560020003802400014024085
:10236000000802400018024000100240000C024029
:102370000004024070B588B000230293204B1A6C11
:1023800042F010021A641B6C03F01003029305461E
:1023900001A903A8029B04F0B5FB069B4BBB04F00C
:1023A00091FB184E184B336040F2E733F360174B44
:1023B000B0FBF3F3013B7360304600233361B3603D
:1023C000B36105F0DDF9044680B9304605F0AEF89A
:1023D000044658B9362003F09DF80F2D0DD822463B
:1023E0002946362003F064F8094B1D60204608B0EA
:1023F00070BD04F067FB4000D3E70124F6E700BF9F
:1024000000380240A05600200010004040420F005B
:102410007C0000207047FEE7FEE7FEE7FEE770471E
:10242000014805F0C1B800BFA0560020014803F0E4
:10243000F1BF00BFC8540020014803F0B5B800BF89
:10244000C45500200120704708B522F045FB162333
:1024500003604FF0FF3008BD08B522F03DFB1623A6
:102460000360FEE770B50D4614460E46731B9C4292
:1024700001DC204670BDAFF3008006F8010BF5E7E4
:1024800070B50D4614460E46731B9C4201DC204677
:1024900070BD16F8010BAFF30080F5E74FF0FF3089
:1024A00070474FF400534B60002070470120704785
:1024B000002070470A4A116808B5034609B909495E
:1024C00011601068694603448B4206D922F004FB70
:1024D0000C2303604FF0FF3008BD1360FCE700BF22
:1024E000E856002078720120704710B50421044698
:1024F00021F00CF9204610BD08B5032913D8DFE8F8
:1025000001F002060A0E01F00BFC006808BD01F0A4
:1025100007FC4068FAE701F003FC8068F6E701F089
:10252000FFFBC068F2E70020F0E7000000487047BA
:102530007C6602080520704713B5002451B103687A
:1025400001948DF8034001AA9C680DF10303A04794
:1025500002B010BD0846FBE7C0897047008A70478B
:10256000C088704780887047807A00F07F0070478D
:10257000807AC00970470020704700009FED010A73
:10258000704700BF00000000704710B508210446E6
:1025900021F0BCF8204610BD7047704700F59873D5
:1025A0000868496803C370477047704741607047C7
:1025B00070477047064BC0F84C310023C0F85031CB
:1025C00000F5A273C0F84801C0F84031704700BF61
:1025D000F1290008012303727047704710B4C268E4
:1025E00041685410034601EB6200D20748BF0A5904
:1025F0009B685DF8044B48BFD358184703464068B2
:1026000030B19A681AB9D86800F00100704701200B
:10261000704710B50C21044621F078F8204610BD13
:1026200010B51021044621F071F8204610BD10B5F8
:102630004FF4AE71044621F069F8204610BD10B584
:102640000EF06AF90368BDE81040DB6B184710B55F
:102650000446D0F8400158B10368DB68984738B1A8
:10266000D4F8400103689B6898470023C4F84031C0
:1026700010BD0000044B1B6893F858200AB1D86CB9
:1026800000B99868704700BF38650120F8B5174653
:1026900004460E460EF002FA124B1C60124B2360E9
:1026A000124B0025C4E95135114BC4E95355186844
:1026B000036801219B68C4E94F55C4E955769847E2
:1026C000284601F0E1FAFFF7D5FF18F01CFFFFF7ED
:1026D000D1FF18F093FFFFF7CDFF18F09BFF2046C6
:1026E000F8BD00BF8C65012010670208F86602087B
:1026F00038650120064BC0F84C310023C0F850313A
:1027000000F5A273C0F84801C0F84031704700BF1F
:10271000F1290008064BC0F84C310023C0F85031B5
:1027200000F5A273C0F84801C0F84031704700BFFF
:10273000A5280008064BC0F84C310023C0F85031E2
:1027400000F5A273C0F84801C0F84031704700BFDF
:102750005D27000803685B6A184700002DE9F14F08
:10276000D0E9556A0746B06803681B6A9847B0F518
:10277000AC7F05D2434B444AA321444821F002FFD9
:10278000706803681B6A98470F2803D8404B3E4A7D
:10279000A421F2E7F06803681B6A98470B2803D866
:1027A0003C4B394AA521E8E70EF0B6F8DFF8EC908B
:1027B00004300EF0D6F8D9F8000010B10368DB68D9
:1027C0009847D9F8000010B103681B689847DFF8F4
:1027D000D080D8F8000010B103685B699847D7F83B
:1027E0003C0110B103685B689847D8F8000010B14D
:1027F00003681B689847D7F83C0110B103689B68D1
:102800009847F0680021FFF7A5FF4FF0000B224B1F
:10281000C0F804B0044680F808B00360B0680368EC
:1028200059465B6A9847054602F004F970680368E8
:1028300059465B6A98472946064602F0D9F8331D87
:10284000C7F83C61C9F80040C8F80050CAF8003029
:102850002B68C6F808A02846DB68EE639847336803
:1028600030461B6898472146284610F0F5FA236841
:1028700020461B69984723685B69204601B0BDE884
:10288000F04F1847095B0208975B0208695C020871
:10289000B05C0208535D020864670208806501208D
:1028A0007C6501202DE9F14FD0E9556A0746B068F3
:1028B00003681B6A984743F6D763984205D8444B90
:1028C000444AA321444821F05DFE706803681B6AF6
:1028D00098470F2803D8414B3E4AA421F2E7F068FD
:1028E00003681B6A98470B2803D83D4B394AA5213A
:1028F000E8E70EF011F8DFF8F09004300EF031F850
:10290000D9F8000010B10368DB689847D9F80000D7
:1029100010B103681B689847DFF8D080D8F8000032
:1029200010B103685B699847D7F83C0110B10368A0
:102930005B689847D8F8000010B103681B68984797
:10294000D7F83C0110B103689B689847F0680021F4
:10295000FFF700FF4FF0000B224BC0F804B0044615
:1029600080F808B00360B068036859465B6A98470E
:10297000054601F0D7FA7068036859465B6A9847C4
:102980002946064601F08CFA331DC7F83C61C9F8A8
:102990000040C8F80050CAF800302B68C6F808A0FC
:1029A0002846DB68EE639847336830461B689847D3
:1029B0002146284610F050FA236820461B699847A4
:1029C00023685B69204601B0BDE8F04F184700BF9F
:1029D000095B0208F65D0208695C0208B05C020847
:1029E000535D020864670208806501207C65012050
:1029F0002DE9F14FD0E9556A0746B06803681B6AB4
:102A00009847B0F5CE7F05D2434B444AA3214448B2
:102A100021F0B8FD706803681B6A98470F2803D837
:102A2000404B3E4AA421F2E7F06803681B6A9847CE
:102A30000B2803D83C4B394AA521E8E70DF06CFF81
:102A4000DFF8EC9004300DF08CFFD9F8000010B1E5
:102A50000368DB689847D9F8000010B103681B6869
:102A60009847DFF8D080D8F8000010B103685B69A0
:102A70009847D7F83C0110B103685B689847D8F8CD
:102A8000000010B103681B689847D7F83C0110B1EB
:102A900003689B689847F0680021FFF75BFE4FF0E2
:102AA000000B224BC0F804B0044680F808B0036065
:102AB000B068036859465B6A9847054601F0A6F975
:102AC0007068036859465B6A98472946064601F0D4
:102AD00079F9331DC7F83C61C9F80040C8F80050C7
:102AE000CAF800302B68C6F808A02846DB68EE63F9
:102AF0009847336830461B6898472146284610F0AF
:102B0000ABF9236820461B69984723685B69204618
:102B100001B0BDE8F04F1847095B0208C85E020823
:102B2000695C0208B05C0208535D02086467020831
:102B3000806501207C650120406A7047806A70478B
:102B400070478A880B8810B5D20A4C88C1699BB23D
:102B500051F8220043EA0443184410BD10B504465E
:102B6000BAB1107B68B1537BD27A1B0203F4E063E5
:102B70001A43236A03EB82031A888A4202D193F92B
:102B8000020010BD05D8013880B204330028F3D10B
:102B9000F7E70020F5E710B52C21044620F0B6FD3C
:102BA000204610BD30B58BB00446BDF86050089586
:102BB000BDF85C5007959DF8505006959DF84C5017
:102BC00005959DF8485004959DF8445003959DF84F
:102BD000405002959DF83C500195BDF83850009545
:102BE0000FF0A4FC064B2360159BE361169B236248
:102BF000199B63621A9BA36220460BB030BD00BFD5
:102C0000886702087047704770477047704730B553
:102C1000036885B06D460181D3F8843001460446CF
:102C20002846984795E807003C3484E8070005B03B
:102C300030BD30B5036885B06D464181D3F884302E
:102C4000014604462846984795E807003C3484E846
:102C5000070005B030BD0022028042808280C28021
:102C6000704780F83610704770B5036804461B6BD8
:102C7000154698472368294620465B6EBDE870409C
:102C8000184700207047806C704770477047704746
:102C90007047704730B4C26844685510034604EB6F
:102CA0006200D20748BF62599B6830BC48BFD35806
:102CB00018470346406830B19A681AB9D86800F0DE
:102CC000010070470120704710B54C21044620F0E8
:102CD0001DFD204610BD10B51021044620F016FD44
:102CE000204610BD10B54FF4CC71044620F00EFD07
:102CF000204610BD08B5FEF7D7FB08BD036870B5C8
:102D00005E6B124B1B6804468DB22BB9104B114AF7
:102D10006C21114821F036FC1049828D09889142BE
:102D200003D80F4B0B4A6D21F3E713F812200D4B1C
:102D30001B6853F8220003681B6B9847291A334617
:102D4000204609B2BDE87040184700BF90650120D9
:102D50009A5F0208DC5F0208176002089465012090
:102D60005E6002089865012000F19803994270B5F1
:102D700004460D4603D10DF0CFFDFFF7CBFC04F167
:102D8000E0039D4205D123682046DB6ABDE8704020
:102D9000184770BD00224FF0FF31C0E9002182606A
:102DA000704770B5036804461B6B15469847236847
:102DB000294620465B6BBDE87040184770B5044655
:102DC0001D46BDF91060FFF7ECFF23682946204639
:102DD0009B6B9847236831462046DB6BBDE870400B
:102DE00018470000F8B5194B018F1B888B42064627
:102DF0002AD9174B1B682BB9164B174A17486C2159
:102E000021F0C0FB13F81120154B1B6853F822501A
:102E1000144B186800F074FF2B6807469B6B28461C
:102E200098472B6804469B6C3946284698472B6880
:102E300014FB00F45B6A394628469847A4B223186D
:102E40001BB2A6F84630F8BD0023FAE794650120CE
:102E5000906501209A5F0208DC5F02081760020893
:102E6000986501209C6501202DE9F04F04468DB046
:102E70000FF046FE824B2360824B002504F16C0A62
:102E8000C4E910354FF48078FF2304F1980984F8E1
:102E900066300AA94FF6FF76C4E91255C4E9145505
:102EA000C4E91655E5632566A4F86480A566504616
:102EB00004F1E007ADF828600AF032F948460BF05B
:102EC0004FF938460BF04CF96F4BC4F850314FF4C2
:102ED0007F03C4F85C316D4BC4F828316C4BA4F807
:102EE0004C81C4E962346B4BA4F85461C4E9643585
:102EF0004FF0FF384FF4A0732A46C4E94B55C4E99C
:102F00004D55C4E94F55C4E95155C4E95A85C4F833
:102F10005851A4F86051C4F86451C4F8705104F1D8
:102F2000400029460093F0230390FFF747FF0398E2
:102F3000261D4FF07F4B0146C4F868B0304606F0BE
:102F40006FFE042350460AA9ADF828300AF0D1FFDD
:102F500096236FF00902504600931421C823FFF70F
:102F60002DFF294650460AF096F85146304606F0A5
:102F700057FE8C2221214846FFF713FF0AAA09A910
:102F80004846ADF82450ADF828500AF079FE0F23DA
:102F9000A4F8D030484604F5C47AFFF723FF494629
:102FA0003046C4E93588C4F8C0A006F039FE38467A
:102FB000D0222121FFF7F5FE0AAA09A93846ADF86B
:102FC0002450ADF828500AF05BFE0923A4F818310C
:102FD0003846FFF707FF3946304604F59477C4E9D1
:102FE0004788C4F808A106F01BFEDA229B21384668
:102FF000FFF7D7FED4F82831A4F85C5104AD284679
:10300000D3F88430C4F858B13946984795E807009A
:1030100004F5B27383E807001F4B1B6804F5BA750B
:103020002BB91E4B1E4A60211E4821F0ABFA1E4BE5
:103030001B88072B03D81D4B194A6121F4E71C4B51
:103040000721186800F05CFE1A4A03460A21284648
:1030500011F004FA3846C4F870510AF093FD0A4B97
:103060000A930AA908233846ADF82C300AF0AAFDC5
:103070003046394606F0D4FD20460DB0BDE8F08F4D
:1030800098680208D8710208E8660208F06702082A
:1030900080680208692D0008906501209A5F020887
:1030A0009C60020817600208946501205E600208B7
:1030B0009C650120E76002087047704730B4C26821
:1030C00044685510034604EB6200D20748BF6259BA
:1030D0009B6830BC48BFD35818470346406830B19E
:1030E0009A681AB9D86800F001007047012070474B
:1030F00010B51021044620F009FB204610BD000049
:1031000010B5034B036004460BF0F0FE204610BDE3
:103110005069020810B5064B036004460BF0E6FE4A
:10312000204641F2682120F0F1FA204610BD00BF90
:103130005069020838B500F19803994204460D46DB
:1031400003D10DF0E9FBFFF7D5FA04F52C74A54285
:1031500005D10DF0E1FBBDE83840FFF7EBBA38BD13
:103160000022C0E90122C0E90322C0E90522C0E92A
:1031700007224FF480728284014A0260704700BFC8
:10318000D068020810B526220446002121F001FC77
:103190002046FFF7E5FF044B2360FF2384F8263029
:1031A0000023A362204610BDD871020810B5262264
:1031B0000446002121F0EDFB2046FFF7D1FF00235C
:1031C000A36284F82C30012384F82430044B23605C
:1031D0004FF6FF7384F83230E3852386204610BD16
:1031E0004072020810B526220446002121F0D1FBCE
:1031F0002046FFF7B5FF0A4B23600A4BA3624FF648
:10320000FF73A3854FF47F020023C4E90C322387A8
:103210004FF0FF32C4E91023E363204610BD00BF26
:1032200048710208E86602082DE9F04F044697B09D
:10323000A04600250FF064FCD04BE56348F8403B06
:1032400004F16C0B4046FFF79DFF04F1980A5846C5
:10325000FFF798FF5046FFF7A9FF04F1CC0318468B
:103260000893FFF7BFFF04F58A7304F5AE7718469D
:103270000993FFF7B7FF384609F01AFDC04E04F571
:10328000E673184606F124090D93FEF73BF904F5A1
:10329000F073C4F8CC61C4F8D4911846C4F8D8517E
:1032A000039309F005FD04F5147318460C93FEF71B
:1032B00029F904F51973C4F85062C4F858921846F5
:1032C000C4F85C52AF4E0493FFF78CFF04F52C73E7
:1032D000C4F864621846C4F8AC520A93FFF766FF5C
:1032E00004F5397318460593FFF77CFF04F54B731B
:1032F00018460793FFF776FF04F55E73C4F82C6356
:103300001846C4F874530693FFF76CFF04F5707306
:1033100018460B93FFF766FF9B4AC4F8C06304F599
:103320008053C4F80854C3E99624984A4FF4616165
:10333000C3E9982504F589600BF0CEFD4FF4A07326
:10334000261D4FF07F492A46404600932946F02328
:10335000FFF734FD41463046C4F8689006F060FC43
:103360004FF4A0732A46584600932946F023FFF7EE
:1033700025FD4FF0FF33C4F894305946304606F02F
:103380004FFC04F5925B504640F21D12CE21FFF730
:1033900008FD0BF1180B012314AA504613A9ADF830
:1033A0004C30ADF850300AF06BFC51463046C4F852
:1033B000C0B006F035FC0DF138080A220898DFF895
:1033C000E4A1AD21FFF7EDFC0899C4F8FC9040465C
:1033D000A4F800510AF04EF998E8070004F5847348
:1033E00083E807000E230898ADF8543014A9CDF8EF
:1033F00050A00AF0E7FB0899304606F011FC502275
:103400000998AD21FFF7CDFC0999C4F844914046D5
:10341000A4F848510AF02EF998E8070004F5A873BB
:1034200083E807000D230998ADF8543014A9CDF8AE
:1034300050A00AF0C7FB0999304606F0F1FB4FF4A3
:10344000A07300932A46042329463846FFF7B6FCAA
:103450000D9BC4F884312A4629463846C4F8D891D1
:10346000A4F8DC5109F03AFD4FF4205229463846C1
:1034700009F03FFDD4F89831B3F5A07F06D04FF4A2
:10348000A073C4F89831384609F032FC384601215F
:1034900009F03AFD4FF4A0753946304606F0C0FBFE
:1034A0000398009504230022A621FFF787FC4FF024
:1034B0007F430027C4F85C320C9BC4F808320398A1
:1034C000A4F860723A46394609F008FD03984FF4B3
:1034D0002052394609F00DFDD4F81C32AB4204D01D
:1034E0000398C4F81C5209F003FC0398DFF8B8A055
:1034F000012109F009FD0399304606F091FB1823DC
:103500006A2204980093AD214223FFF757FCD4F8B8
:1035100064320499D3F884300EAD4FF07F49002710
:103520002846C4F89492A4F89872984795E8070042
:10353000049B03F13C08062388E8070084F89D32C9
:10354000D4F864320499D3F884302846984795E833
:103550000700DAF8003088E8070004F20C482BB9BD
:103560000B4B0C4A60210C4821F00CF80B4B1B88CC
:103570000C2B1BD80A4B074A6121F4E7506902085B
:10358000386E0208F0670208386902083531000811
:103590009A5F02089C600208176002089465012087
:1035A0005E600208E8660208906501207A4B0C21F3
:1035B000186800F0A5FB794A03460A21404610F03E
:1035C0004DFF0B230498C4F8AC8214A9DFF8D48112
:1035D000ADF85430CDF850800AF0F4FA0499304632
:1035E00006F01EFB0A984FF48E72AD21FFF7D9FB4F
:1035F0004FF0020214A90A98ADF84C20ADF8502003
:103600000A4613A90AF03CFB0A99C4F8D8B230461E
:1036100006F006FB84220598AD21FFF7C2FB059951
:10362000C4F814932846A4F818730AF023F8059AEE
:1036300002F13C0395E8070083E80700052305989D
:10364000ADF8543014A9CDF850800AF0BBFA0599B2
:10365000304606F0E5FA18219E2207980091422391
:10366000AD21FFF7ABFBD4F82C330799D3F88430A6
:10367000C4F85C932846A4F860739847079A02F14F
:103680003C0395E8070083E80700DAF8003004F50A
:10369000846B002B3FF464AF414A1388012B7FF603
:1036A00069AF3D4B0121186800F02AFB3B4A0346F5
:1036B0000A21584610F0D2FE04230798C4F874B3C8
:1036C00014A9ADF85430CDF850800AF07BFA079970
:1036D000304606F0A5FAB8220698AD21FFF761FB47
:1036E00028460699C4F8A893A4F8AC7309F0C2FF61
:1036F000069901F13C0395E8070083E807000323DE
:103700000698ADF8543014A9CDF850800AF05AFA52
:103710000699304606F084FA1821009142230B984E
:10372000D222AD21FFF74AFB4FF0FF33C4F800343B
:10373000DAF80030C4F8F093A4F8F473C4F8FC731A
:10374000C4F8047404F23445002B3FF409AF144A62
:103750001388002B3FF40EAF0F4B3946186800F06A
:10376000CFFA0E4A03460A21284610F077FE4FF0A2
:1037700002020B98C4F8085414A9ADF85420CDF8EF
:1037800050800AF01FFA30460B9906F049FA20469D
:1037900017B0BDE8F08F00BF9C650120E76002080C
:1037A00094650120E866020870477047704730B49E
:1037B000C26844685510034604EB6200D20748BF54
:1037C00062599B6830BC48BFD358184703464068CD
:1037D00030B19A681AB9D86800F00100704701202A
:1037E000704710B5102104461FF090FF204610BD11
:1037F00010B54FF4AC7104461FF088FF204610BD91
:1038000038B500F19803994204460D4603D10DF0F6
:1038100083F8FEF76FFFCC34A54205D10DF07CF89C
:10382000BDE83840FEF776BF38BD00002DE9F04F07
:1038300004468BB0A04600250FF062F9594BE563B2
:1038400048F8403B04F16C0B4046FFF79BFC04F149
:10385000980A5846FFF796FC04F1CC09504604F547
:103860008076FFF7A3FC4846FFF7A0FC29462622F6
:10387000304621F08EF83046FFF772FC4A4BC4F810
:1038800000314A4BC4F828314FF6FF73A4F82C31AD
:103890004FF47F03C4F83431454BC4F83051C4E9C8
:1038A00052344FF0FF32434BA4F83851C4E950254D
:1038B0004FF4A072C4E95435C4F83C51F02300928F
:1038C00029462A464046FFF779FA271D4FF07F42E6
:1038D000A2664146384606F0A3F94FF4A072F023E1
:1038E000009229462A465846FFF768FA4FF0FF3201
:1038F000C4F894205946384606F092F95046AA2258
:103900004F21FFF74EFA04F5A478012308AA07A96E
:103910005046ADF81C30ADF820300AF0B1F95146F0
:103920003846C4F8C08006F07BF94846A8228321B7
:10393000FFF737FA032308AA07A94846ADF81C3059
:10394000ADF820300AF09CF949463846C4F8F480B6
:1039500006F066F930462F221421FFF722FA4FF0C5
:103960007F42A4F8345102ADC4F8302131462846D4
:1039700009F080FE95E8070004F59E7383E80700D0
:103980000A4B089308A906233046ADF824300AF004
:1039900019F93846314606F043F920460BB0BDE828
:1039A000F08F00BF9C69020848710208E8660208AF
:1039B00084690208013800087047000030B5164DD0
:1039C0002C6814F001048FB0BFF35B8F20D1284620
:1039D0001FF09EFEE0B13F230993104B0893104B5C
:1039E000104911480A940122CDE906430423CDE988
:1039F00003320A230093CDE90B44CDE90144059439
:103A0000FFF7D0F8094820F0DBFD28461FF08CFEB8
:103A100005480FB030BD00BFEC560020EC8F020807
:103A200054900208548D0208F0560020B93900085D
:103A30007047000030B5174D2C6814F001048FB0AA
:103A4000BFF35B8F22D128461FF062FEF0B13F2307
:103A50000993114B0893114B07930123CDE90543BB
:103A600004930423CDE9024314230D4900931F223C
:103A70001823CDE90B440B480A940194FFF792F800
:103A8000094820F09DFD28461FF04EFE05480FB066
:103A900030BD00BF1C570020F08F0208589002086C
:103AA000648D020820570020313A0008704700005A
:103AB00030B5164D2C6814F001048FB0BFF35B8F46
:103AC00021D128461FF024FEE8B13F230993104B73
:103AD0000893104B07930123CDE905430493042376
:103AE000CDE902431E230C4900930E22CDE90B447D
:103AF0000A480A940194FFF755F8094820F060FD40
:103B000028461FF011FE05480FB030BD4C5700206D
:103B1000289002085C900208188F02085057002075
:103B2000AD3A00087047000030B5164D2C6814F00F
:103B300001048FB0BFF35B8F20D128461FF0E8FD52
:103B4000E0B13F230993104B0893104B10491148E3
:103B50000A940122CDE906430423CDE90332282348
:103B60000093CDE90B44CDE901440594FFF71AF821
:103B7000094820F025FD28461FF0D6FD05480FB066
:103B800030BD00BF7C5700205090020860900208B2
:103B9000DC8F020880570020253B0008002070477A
:103BA000002070470EB403B503AB002153F8042B7B
:103BB00001930DF039FF02B05DF804EB03B07047DC
:103BC0000CB407B504AB53F8042B01930DF02CFF94
:103BD00003B05DF804EB02B070470000436C10B511
:103BE000044673B3038F2BB9184B194AC5211948E2
:103BF00020F0C8FCC38E00EB43035B8C0BB30FF0CB
:103C000084FE238F012B03D8134B144ACB21EEE7FC
:103C1000E28E531C9BB2092B194688BFA3F10A01FF
:103C200004EB410140F63F10498C814209D10A2B37
:103C300004EB420228BF002304EB4303508C58845A
:103C400051842046BDE810400FF062BDEA600208D2
:103C5000F36002089E610208E8610208F66102084A
:103C60000FF01DBD10B586B002AC84E806001A4600
:103C70000AAB05930193099B00932146089B0CF026
:103C8000CDF906B010BD000038B518BB124B134873
:103C90001C681349B4B1226822440260626822445D
:103CA0000A60A26814440F4B00221A8000F038F812
:103CB000054600F033F80C4B1C600C4B1D600C4BA0
:103CC000188007E00B4B03600B4B0B600B4B1C6821
:103CD000002CE8D138BD00BFB8570020B0570020F5
:103CE000AC570020B4570020906501209865012052
:103CF00094650120A490020864900208349102089F
:103D0000044B1B6853F82100034B1B6803EB400076
:103D1000704700BFAC570020B057002010207047FC
:103D200000487047BC57002010B5FFF783FE064CD3
:103D30002060FFF7F9FE6060FFF740FEA060FFF72C
:103D4000B7FEE06010BD00BFBC57002010B50024D6
:103D500004600C6014601C6010BD704710B54FF417
:103D6000AE7104461FF0D2FC204610BD10B50446CB
:103D7000D0F8580100F013F82046BDE810400CF0D0
:103D80004DBE000010B50446FEF780FC014B2360D9
:103D9000204610BDD06902080022026070477047BB
:103DA0000171704700797047704704387047704759
:103DB00010B5102104461FF0A9FC204610BDA0F14B
:103DC0000400F5E700228260024A02601832426075
:103DD000C1607047246A02088068FFF7E1BF70473E
:103DE00010B5034B03600446FEF752FF204610BD9A
:103DF0004C6A020810B50446FFF7F2FF20464FF464
:103E0000CE711FF083FC204610BD000010B50446A3
:103E1000FFF72AF8034B236040F20143A4F89831DE
:103E2000204610BD4C6A0208FEF733BF38B5044681
:103E300000F5BA7590F89831064A2846142110F01A
:103E40000DFBC4F8705104F59470BDE838400DF0D6
:103E500015BF00BFC862020810B590F8981190F81D
:103E600099310131C9B28B4238BF0121044680F833
:103E70009811C06BFFF7B0FF2046BDE81040FFF778
:103E8000D5BF704704387047704710B510210446FD
:103E90001FF03CFC204610BDA0F10400F5E7000037
:103EA00000228260024A026018324260C16070479C
:103EB000846A02088068FFF775BF08B50CF02CFD16
:103EC000BDE80840FEF736BC704700000E4B70B5E9
:103ED0000546036043F6B04443F6F016B4420DD1F4
:103EE00041F268262B5928191B682C3C9847B4428C
:103EF000F8D12846FFF704F9284670BD2B59281938
:103F00001B6898472C3CE9E7B46A020810B50446E0
:103F1000FFF7DCFF204643F6D8611FF0F7FB204691
:103F200010BD0000F8B5064606F59455FFF77CF97C
:103F300006F56854324B336014351C3405F5DC77D4
:103F400028462C35FFF71EF9BD42F9D1A542F5D11F
:103F500006F573551C3504F1B00720462C34FFF7E5
:103F600011F9A742F9D1BD423C46F4D106F54054BF
:103F70000A2384F8DC3C172384F8DD3CE622002188
:103F800004F6DE4020F005FDE622002104F6C450D0
:103F900020F0FFFC1022002104F6AA6020F0F9FCBA
:103FA0000021102204F6BA6020F0F3FC032384F809
:103FB000CB3E06F580530025012284F8CA5E83F8C3
:103FC0006922C4F8CC2E4FF4FA72A3F87422C822E6
:103FD000C3E99E254FF49672C3F87052C3F880521D
:103FE000C3F88C52C3F89022F06BC4F8D05EFFF790
:103FF00061FF84F8D40EA4F8D65E3046F8BD00BF49
:10400000B46A020810B500F54053002293F8DC4C66
:104010000A2303FB010000F577530333944201DCCC
:10402000012010BD13F8010F0028FAD00132F5E786
:10403000F0B500F5765500F5405739350A260029C8
:1040400097F8DC3C0CDD06FB0154002204E014F878
:1040500001CF84F80AC001329A42F8DB0139EEE759
:1040600000F57750033003440022984200D1F0BDA0
:1040700000F8012FF9E770B500F54053054693F8B5
:10408000DD4C0026013C631C01D1304670BD214649
:104090002846FFF7B7FF20B12846FFF7C9FF0136D2
:1040A0000134013CEFE70000F8B500F54056184D2B
:1040B000D6F8D03E044600F20C472A460A2138467C
:1040C00010F0CCF9C4F8AC7204F5197004F58467EB
:1040D0000DF0D4FD96F8D43E2A460A21384610F059
:1040E000BDF9C4F8747304F54B7004F234470DF055
:1040F000C5FDB6F8D63E2A4638460A2110F0AEF97C
:10410000C4F8087404F57070BDE8F8400DF0B6BD51
:10411000CB620208002930B422DD4B1E032B9CBF6A
:10412000104A32F9135000F5405388BF002593F828
:10413000D42ED3F8D04E05FB0244C3F8D04EB3F8CA
:10414000D64E214489B202EB8204B1EB440FA4BFE6
:10415000013283F8D42E30BCA3F8D61EFFF7A4BFDB
:1041600030BC7047A46A020800F54050962390F8CE
:10417000D40E01385843B0F5E17F34BFC0F5FA7072
:10418000322070471FB50023CDE902330D220123F1
:104190000F486946CDE9002301F0DCF8A0B90C48CE
:1041A00000F0E8FF0A48642101F07DF848B90848AA
:1041B00001F0CCF884B2064801F05AF8204604B069
:1041C00010BD034801F054F84FF40064F6E700BF57
:1041D000545600201FB50023CDE9023305220123E8
:1041E0000F486946CDE9002301F0B4F8A0B90C48A6
:1041F00000F0C0FF0A48642101F055F848B90848AA
:1042000001F0A4F884B2064801F032F8204604B068
:1042100010BD034801F02CF84FF40064F6E700BF2E
:104220000C5600202DE9F04700F5405100F573537E
:1042300091F8DD7C1D330025AF420EDD91F8DC6C7A
:104240001C46002204E094F8E7C004F801CF0132D4
:104250009642F8DC01350A33EEE700F57A5229324E
:1042600000254FF00A0E43F6DE481646002416F8E5
:1042700001CFBCF1000F10D091F8CA3E2B449F42F1
:104280000BDD91F8CB9E91F8DCACA144CA45C2BFCE
:104290000EFB03034B4403F808C00134042CE6D1A1
:1042A0000135042D02F10402DFD1BDE8F0872DE9CC
:1042B000F04100F57A5400F5405600F57750293466
:1042C00001F1040C171D04304FF00A0E1346254669
:1042D00015F8018FB8F1000F12D0002B1ADB96F8F9
:1042E000DC8C984516DD96F8DD8C884512DD0029BA
:1042F00006DB0EFB010818F80380B8F1000F09D1A6
:104300000133BB42E4D10131614504F10404DDD144
:10431000012000E00020BDE8F08100F5405393F853
:10432000CA1E93F8CB2E0131FFF7C1BF00F57A52B8
:104330002DE9F0432932002400F540554FF00A0ED4
:1043400043F6C4581746002117F801CFBCF1000FFF
:1043500012D095F8CA3E95F8DD6C23449E420BDDE1
:1043600095F8CB6E95F8DC9C0E44B145C2BF0EFBB0
:1043700003039B1903F808C001310429E4D1013477
:10438000042C02F10402DDD1BDE8F0832DE9F84FE1
:1043900000F5945600F57357DFF854B014361D3706
:1043A0004FF0000800F5405595F8DD3C43451ADC18
:1043B000BDE8F88F1AF8013F002B0CBF5B464FF0A9
:1043C0007F43A362236820465B69984709F101098E
:1043D0002C3495F8DC3C4B45ECDC08F1010806F583
:1043E000DC760A37E0E7BA4634464FF00009F0E7DA
:1043F000808080FF38B500F58053044693F868222A
:10440000AAB193F8693293B900F5405595F8CB2ECF
:1044100095F8CA1E013AFFF74AFF40B185F8CB2E46
:104420002046FFF7FFFEBDE83840FFF7AFBF38BDBD
:1044300038B500F58053044693F86822AAB193F882
:10444000693293B900F5405595F8CB2E95F8CA1E00
:104450000132FFF72CFF40B185F8CB2E2046FFF745
:10446000E1FEBDE83840FFF791BF38BD00F580534D
:1044700010B593F8682204469AB193F8693283B96B
:10448000FFF74BFF68B104F54052204692F8CA3E50
:10449000013382F8CA3EFFF7C5FEBDE81040FFF7C2
:1044A00075BF10BD2DE9F04100F57A5400F568554F
:1044B000393400271C35EE1904F1040814F8013FC3
:1044C000002B0CBF4FF0FF334FF07F43B3623368D4
:1044D00030465B699847444506F12C06EED1B0376B
:1044E000B7F5307FE7D1BDE8F0810000072928BF8C
:1044F0000021042A28BF002202EB81010B4A00F5AB
:104500007A5300F57A5002EB01122A333A301178CF
:1045100019705178597091789970D178D9700433A5
:10452000834202F10402F2D1704700BFE06A020840
:104530002DE9FF4700F57A5500F57A582A356E4681
:1045400004460A4608F13A0830462B4619780170AD
:104550005978417099788170043313F8011CC17047
:10456000434500F10400F1D104F5805304F54059AE
:10457000D3F880122046FFF7B9FF99F8CA7E99F860
:10458000CBAE394652462046FFF791FE40B90AF1BC
:10459000FF3239462046FFF78AFE18B189F8CB2E44
:1045A00001201EE00AF1010239462046FFF77FFE96
:1045B0000028F3D1013F524639462046FFF777FEE7
:1045C00010B189F8CA7EEBE733782B7073786B7083
:1045D000B378AB70F378EB700435454506F104060B
:1045E000F2D104B0BDE8F08770B500F580560546FD
:1045F00096F86832FBB196F86932E3B9D6F87C4296
:104600000134634203F0030304F0030458BF5C4227
:104610002146FFF78DFF70B1D6F88012C6F87C42B4
:1046200022462846FFF762FF2846FFF7FBFDBDE85C
:104630007040FFF7ABBE70BDF8B5054605F5805478
:1046400000F0D8FCD4F87032D4F87822C31A934220
:1046500007462DD32846FFF795FD06462846FFF767
:10466000B9FDA6F500631BB283EAE371B4F87422C6
:10467000A1EBE37109B2A0F50066914236B207DD05
:1046800051428B4215DA2846FFF7B4FEC4F8707227
:1046900086EAE672B4F87432A2EBE67212B29A427B
:1046A00006DDB3420BDA2846FFF7E0FEC4F870726D
:1046B000F8BD9A42ECDA2846FFF7BAFEE6E75B421D
:1046C0009E42F5DAD4F88C32D4F89022FB1A934249
:1046D000EED32846FFF788FFC4F88C72E8E70000A5
:1046E000072928BF0021042A28BF002202EB8101EC
:1046F0000B4A00F57A5300F57B5002EB01123A3376
:104700000A30117819705178597091789970D17870
:10471000D9700433834202F10402F2D1704700BF22
:10472000E06A020800F5405230B4D2F8CC4E0C4D8D
:1047300043F2390105FB041121F00041C2F8CC1EFF
:1047400000F580530722B1FBF2F2C2EBC202891AD4
:10475000002230BCC3F88812C3F88422FFF7C0BF20
:104760006D4EC64100F57A5300F57A522A333A323B
:10477000197C1970597C5970997C9970D97CD970C1
:1047800004339342F4D100F58050D0F88832C0F859
:104790008032D0F88432C0F87C3270472DE9F8437B
:1047A00001224FF4005104463F4801F0B5F804F5EA
:1047B00080560A2000F024FC3B4800224FF40051B0
:1047C00001F0AAF896F86832002B6AD02046FFF76D
:1047D00033FF96F869320BB32046FFF7C3FF20463C
:1047E000FFF7A0FF2046FFF75DFE04F540530021D0
:1047F00093F8DC2C83F8CA1E5208023AD2B283F82E
:10480000CB2E204686F86912FFF751FD30B986F8A5
:104810006802E06BBDE8F843FFF74FBB2046234F2B
:10482000FFF700FD00F0E6FB3B68054603B9386082
:104830002046FFF799FC3B68EB1A98420CD82046BB
:10484000FFF76BFD814678B104F5405292F8CA3EFD
:10485000013382F8CA3E3D602046FFF797FDBDE870
:10486000F843322000F0CCBB2046FFF75FFDFFF796
:1048700002FCB0F1000810DD012204210A4801F019
:104880004BF8642000F0BCFB074804214A4601F0C5
:1048900043F841462046FFF73DFC012386F8693284
:1048A000D9E7BDE8F88300BF00180240CC570020CC
:1048B0002DE9F04F044685B004F58058FEF7FDFB66
:1048C00004F5405740F20113A8F868324FF44073E2
:1048D000A7F8CA3E0025C8E99F55E06BC7F8D05E2F
:1048E000FFF7E8FAA7F8D65E87F8D40E2046FFF760
:1048F00019FF04F5945909F1140997F8DD3CAB420E
:1049000028DD2A01303A12B24E464FF0000A04F177
:10491000040B17E04FEA0A110F23053130460093CC
:1049200009B20292FEF74AFA294BB3623146584661
:1049300005F076F9336830465B699847029A0AF1C8
:10494000010A2C3697F8DC3C5345E3DC013509F5C8
:10495000DC79D2E704F5685A22274FF000090AF102
:104960001C0A4FF00B0B231D3AB20AEB0905B426C3
:10497000029331B228460B23CDF800B00392FEF724
:104980001DFA4FF0FF33AB622946029805F048F953
:104990002B680C3628465B69B6B29847E42E039A1A
:1049A00005F12C05E5D10C37BFB2522F09F1B00942
:1049B000D9D12046FFF778FB00F01CFBC8F8700245
:1049C00000F018FBC8F88C0205B0BDE8F08F00BFFE
:1049D000808080FF704704387047704710B5102101
:1049E00004461EF093FE204610BDA0F10400F5E73A
:1049F00000228260024A026018324260C160704741
:104A0000A86C02087047000010B5034B0360044611
:104A1000FEF7CBFE204610BDD06C020810B5044650
:104A2000FFF7F2FF20464FF4AC711EF06FFE2046F8
:104A300010BD000010B50446FEF7F8FE014B2360E0
:104A4000204610BDD06C0208FEF7B0BEF0207047C3
:104A50004FF4A07070472920FDF76EB92820FDF7AC
:104A60006BB908B5FDF73CF9CA20FDF765F9C3201D
:104A7000FDF746F90820FDF743F95020FDF740F90E
:104A8000CF20FDF759F90020FDF73AF9C120FDF7D5
:104A900037F93020FDF734F9ED20FDF74DF96420AA
:104AA000FDF72EF90320FDF72BF91220FDF728F969
:104AB0008120FDF725F9E820FDF73EF98520FDF777
:104AC0001FF90020FDF71CF97820FDF719F9CB201C
:104AD000FDF732F93920FDF713F92C20FDF710F915
:104AE0000020FDF70DF93420FDF70AF90220FDF74B
:104AF00007F9F720FDF720F92020FDF701F9EA205A
:104B0000FDF71AF90020FDF7FBF80020FDF7F8F893
:104B1000B120FDF711F90020FDF7F2F81B20FDF799
:104B2000EFF8B620FDF708F90A20FDF7E9F8A22012
:104B3000FDF7E6F8C020FDF7FFF81020FDF7E0F8DC
:104B4000C120FDF7F9F81020FDF7DAF8C520FDF7D0
:104B5000F3F84520FDF7D4F81520FDF7D1F8C7206C
:104B6000FDF7EAF89020FDF7CBF83620FDF7E4F8E2
:104B7000C820FDF7C5F8F220FDF7DEF80020FDF7AC
:104B8000BFF8B020FDF7D8F8C220FDF7B9F8B6207D
:104B9000FDF7D2F80A20FDF7B3F8A720FDF7B0F82B
:104BA0002720FDF7ADF80420FDF7AAF82A20FDF72D
:104BB000C3F80020FDF7A4F80020FDF7A1F80020BD
:104BC000FDF79EF8EF20FDF79BF82B20FDF7B4F8DA
:104BD0000020FDF795F80020FDF792F80120FDF781
:104BE0008FF83F20FDF78CF8F620FDF7A5F801209F
:104BF000FDF786F80020FDF783F80620FDF780F822
:104C00002C20FDF799F8C820FDF7E4F82620FDF7E1
:104C100093F80120FDF774F8E020FDF78DF80F20E0
:104C2000FDF76EF82920FDF76BF82420FDF768F8F2
:104C30000C20FDF765F80E20FDF762F80920FDF75E
:104C40005FF84E20FDF75CF87820FDF759F83C201E
:104C5000FDF756F80920FDF753F81320FDF750F83B
:104C60000520FDF74DF81720FDF74AF81120FDF754
:104C700047F80020FDF744F8E120FDF75DF800203B
:104C8000FDF73EF81620FDF73BF81B20FDF738F83E
:104C90000420FDF735F81120FDF732F80720FDF765
:104CA0002FF83120FDF72CF83320FDF729F84220AA
:104CB000FDF726F80520FDF723F80C20FDF720F876
:104CC0000A20FDF71DF82820FDF71AF82F20FDF720
:104CD00017F80F20FDF714F81120FDF72DF8C82064
:104CE000FDF778F82920FDF727F8BDE808402C20CB
:104CF000FDF722B808B5FCF7F3FF0321D320FDF739
:104D000037F880B208BD10B5C4B202220321204694
:104D1000FCF79CFF0A20FCF7E1FF2046002203215C
:104D2000FCF794FFBDE810400220FCF7D7BF38B570
:104D30000446E4B2FCF788FF00212046FCF79EFF02
:104D4000012105462046FCF799FF40EA052080B284
:104D500038BD10B5C4B240212046FCF78FFF0306D2
:104D600007D54C212046FCF789FF003818BF0120E9
:104D700010BD01224B212046FCF768FF204600228F
:104D80004B21FCF763FF0020F2E773B50423C4B2A4
:104D90000E461546D7210DEB03022046FCF788FF8F
:104DA000019B1BBA1A0DC3F30B23328020462B80C4
:104DB00001224B21FCF74AFF00224B212046FCF741
:104DC00045FF02B070BD000010B50A4A1378984242
:104DD00004460DD0517888420AD00BB141B9012365
:104DE000D454FCF731FF2046BDE81040FFF78BBFDD
:104DF00010BD00BFD057002010B5C4B20921204615
:104E0000FCF73CFF40F00102D2B220460921BDE888
:104E10001040FCF71BBF10B5C4B209212046FCF7B7
:104E20002DFF092100F0FE022046BDE81040FCF7EE
:104E30000DBF38B5C4B20D4620460A21FCF71EFF4F
:104E400040EA0502D2B220460A21BDE83840FCF70C
:104E5000FDBE10B50446FCF7F8FE20461F21FFF703
:104E6000E8FF2046BDE81040FFF7C6BF38B5C4B222
:104E70000D4620460A21FCF701FF20EA0502D2B2C6
:104E800020460A21BDE83840FCF7E0BE10B50446D4
:104E9000FFF7C1FF20461F21BDE81040FFF7E6BF26
:104EA00010B5C0B20C460B21FCF7E8FE204010BD47
:104EB0001F21FFF7F5BF0A46C0B20B21FCF7C6BEA3
:104EC0001F21FFF7F8BF38B5C4B20D4620461721A1
:104ED000FCF7D4FE20EA0502D2B220461721BDE835
:104EE0003840FCF7B3BE70B5C4B206460421204674
:104EF000FCF7C4FE042100F0FB0205462046FCF747
:104F0000A5FE3046F021FFF7DEFF05F0F80220464F
:104F10000421FCF79BFE492220212046FCF796FE47
:104F20000220FCF7DBFE204601222121FCF78EFE49
:104F300020469A224121FCF789FE204601224A217F
:104F4000FCF784FE204601224B21FCF77FFE204621
:104F500000224B21FCF77AFE204601225621FCF765
:104F600075FE204601225821FCF770FE20460122E2
:104F70004021FCF76BFE2046FF220B21FCF766FE6A
:104F8000BDE870400220FCF7A9BE0000054BD3F835
:104F9000882042F47002C3F888204FF000629A60C3
:104FA000704700BF00ED00E008B50B4B1A6842F4F3
:104FB00000721A601A6842F480621A601A6842F439
:104FC00080721A60032000F061FA0020FDF7D2F928
:104FD000FCF70EFF002008BD003C0240034A044BD2
:104FE00011681B780B441360704700BFD457002032
:104FF00078000020014B1868704700BFD45700208C
:1050000038B50446FFF7F6FF631C1CBF054B1B7841
:10501000054618BFE418FFF7EDFF431BA342FAD380
:1050200038BD00BF7800002038B50446002800F0E5
:105030009B80056C25B9FCF7FBFE656484F83C5049
:10504000236CDB0600F18E80236C23F4885323F05D
:10505000020343F002032364444B5A6822F44032B3
:105060005A605A6861680A435A60236821695A681D
:1050700022F480725A605A6842EA01225A605A68E1
:10508000A16822F040725A605A680A435A609A68CE
:10509000E16822F400629A609A680A439A6034498F
:1050A000A26A8A4252D0996821F070619960996829
:1050B0000A439A609A68E16A22F040529A609A68BC
:1050C0000A439A609A6822F002029A609A68217EE6
:1050D00042EA41029A6094F82020002A3ED05A68A1
:1050E000616A42F400625A605A6822F460425A606F
:1050F0005A68013942EA41325A60DA6AE16922F4B7
:105100007002DA62DA6A013942EA0152DA629A68B6
:1051100022F400729A609A6894F8301042EA4122B0
:105120009A609A68616922F480629A609A680020A5
:1051300042EA81229A606064236C23F0030343F007
:1051400001032364002384F83C3038BD9A6822F0C0
:1051500070629A609A6822F04052B2E75A6822F46C
:105160000062C9E70120EDE70120EEE700230140DE
:105170000100000F82B00023019390F83C30012B16
:1051800069D0012380F83C3003689A68D2070BD5B8
:105190009A68D1071AD4036C43F010030364436C7C
:1051A00043F0010343644CE09A682C4942F0010249
:1051B0009A602B4A1268B2FBF1F202EB42020192B2
:1051C000019A002AE4D0019A013AF8E7026C22F42D
:1051D000E06222F0010242F4807202645A685205D1
:1051E00041BF026C22F4405242F480520264026CCD
:1051F00012F480521CBF426C22F00602426400226C
:1052000080F83C206FF022021A60164A516811F0B3
:105210001F0F15491CD18B4207D001F580718B42BD
:105220000CD1526812F01F0F0BD19A6812F0405F38
:1052300007D19A6842F080429A6002E00B498B42A3
:1052400002D0002002B07047526812F0100FEBE756
:105250008B42F6D1E9E70220F4E700BF40420F009D
:105260007400002000230140002001400022014082
:1052700090F83C30012B14D003689A6822F00102A8
:105280009A609B68DB0707D4036C23F4885323F0F0
:10529000010343F001030364002380F83C30184607
:1052A00070470220704703689A68520570B504463B
:1052B0000D460BD59B68DE0508D5036C43F0200333
:1052C0000364002380F83C30012070BDFFF792FE9C
:1052D000064623681A6891070CD56FF012021A600F
:1052E000226C42F4007222649A6812F0405F17D078
:1052F0000020EAE7681CEDD065B923681B6813F04D
:105300000203E6D1226C84F83C3042F004022264AD
:105310000320DAE7FFF76EFE801BA842EDD8D8E73E
:10532000227E002AE4D1DA6A12F4700F02D09B6860
:105330005A05DDD4236C23F480732364236CDB04CF
:10534000D6D4236C43F001032364D1E70368D86CFF
:1053500070470000F7B50023019390F83C30012B13
:10536000054600F08680012380F83C3008682B68F1
:105370008E68092884B233D904EB4402DF681E3AF0
:105380004FF0070C0CFA02FC27EA0C07DF60DF681D
:1053900006FA02F23A43DA604968062901EB810213
:1053A0002DD8596B053A1F26964021EA060159630C
:1053B000596B04FA02F20A435A632F4A93420AD104
:1053C000122837D12D4B5A6822F400025A605A68CD
:1053D00042F480025A60002085F83C0003B0F0BD22
:1053E0001A6900EB400C072707FA0CF722EA0702BC
:1053F0001A611A6906FA0CF616431E61CCE70C29ED
:105400004FF01F010BD81E6B233A914026EA010191
:105410001963196B04FA02F20A431A63CDE7DE6AD4
:10542000413A914026EA0101D962D96A94400C437D
:10543000DC62C2E7124B984201D01128CBD10F4B4E
:105440005A6822F480025A605A6842F400025A6094
:105450000B4B9842BFD10B4B0B4A1B68B3FBF2F3CB
:105460000A2253430193019B002BB4D0019B013BC3
:10547000F8E70220B2E700BF00200140002301400E
:10548000120000107400002040420F000749CA6853
:1054900022F4E0620302120403F4E063120C1343EB
:1054A00043F0BF6343F40033CB60704700ED00E08E
:1054B000164B30B5DC68C4F30224C4F10703251D84
:1054C000042B28BF0423062D4FF0FF358CBF033C6F
:1054D000002405FA03F321EA0303A54022EA0502AA
:1054E000A340002843EA0203ACBF00F16040084A31
:1054F0004FEA0313B8BF00F00F00DBB2AABF00F5FC
:105500006140135480F8003330BD00BF00ED00E06F
:1055100014ED00E0002807DB044A4109012300F0F4
:105520001F00834042F82130704700BF00E100E0D7
:1055300010B5044650B1437903F0FF0213B902716C
:10554000FCF7CEFC01236371002010BD0120FCE7B5
:1055500010B5044620B390F8393003F0FF021BB9B0
:1055600080F83820FCF7D4FC022384F83930236813
:1055700061681A6822F440320A431A605A6BA168C3
:1055800022F007020A435A631A6CE1686FF30D02B6
:105590000A431A6400200123E06384F8393010BD07
:1055A0000120FCE770477047036870B55E681D68AE
:1055B000F207044614D5E90512D51A6822F4807260
:1055C0001A60C26B42F00102C26301229A60042396
:1055D00080F83930002380F83830436903B19847A8
:1055E000B20616D5AB0414D523681A6822F400520B
:1055F0001A6020229A60E36B43F00203E363042302
:1056000084F83930002384F8383063690BB12046C0
:105610009847300716D5290514D523681A6822F44F
:1056200000621A6008229A60E36B43F00403E363AC
:10563000042384F83930002384F8383063690BB1CF
:105640002046984772070BD56B0509D523681A6861
:1056500022F480621A6004229A602046FFF7A2FFBB
:10566000B00714D5A90512D523681A6822F4007270
:105670001A6002229A60E36BE363012384F83930F5
:10568000002384F8383023690BB120469847F2068E
:1056900013D5EB0411D523681A6822F480521A60DE
:1056A00010229A60E36BE363012384F8393000230E
:1056B00084F838302046FFF776FF70BDF0B590F8DB
:1056C0003820012A03464FF002002BD0012283F834
:1056D000382083F8390003EB0112D2E90740556AFC
:1056E000174F44EA0040093C012C9CBF05F07F4263
:1056F00010434FEA01161A6888BF40EA056091B965
:10570000516A394001435162012C9969916103D872
:10571000596A21F07F4191620122002083F83920EB
:1057200083F83800F0BDD16939400143D16199193E
:10573000012C896911619CBF25F07F451562EBE75B
:10574000F0FFFC002DE9F74FDFF8BC916C4A002315
:105750000D6801249C4004EA0506AC4340F0B78084
:105760004D68032705F003044FEA430807FA08FCD5
:10577000671E012F6FEA0C0C34D8876807EA0C0EFD
:10578000CF6807FA08F747EA0E078760476827EAF5
:10579000060EC5F300179F4047EA0E074760C7682B
:1057A00007EA0C0E8F6807FA08F747EA0E07022C83
:1057B000C76019D14FEAD30A00EB8A0A03F0070B3E
:1057C000DAF820704FEA8B0B4FF00F0E0EFA0BFE3B
:1057D00027EA0E0E0F6907FA0BF747EA0E07CAF819
:1057E000207001E0032CDAD1076804FA08F407EA14
:1057F0000C073C4315F4403F046068D0002401943A
:10580000D9F8444044F48044C9F84440D9F84440AD
:1058100023F0030707F1804704F4804407F59C3721
:10582000019403F0030C019CD7F808E04FEA8C0CBC
:105830000F2404FA0CF42EEA040E324CA0424DD090
:1058400004F58064A0424BD004F58064A04249D0A6
:1058500004F58064A04247D004F58064A04245D09E
:1058600004F58064A04243D004F58064A04241D096
:1058700004F58064A0423FD004F58064A0423DD08E
:1058800004F58064A04214BF0A24092404FA0CF42D
:1058900044EA0E04BC609468F74315F4801F0CBF03
:1058A0003C4034439460D46815F4001F0CBF3C4066
:1058B0003443D460546815F4003F0CBF3C4034437B
:1058C00054601468ED0354BF3C403443146001330A
:1058D000102B7FF43DAF03B0BDE8F08F0024D5E777
:1058E0000124D3E70224D1E70324CFE70424CDE742
:1058F0000524CBE70624C9E70724C7E70824C5E742
:10590000003C014000000240003802400369194297
:1059100014BF0120002070470AB18161704709045B
:10592000FBE7436901EA030221EA030141EA02417C
:105930008161704701684B6913F480634FF0000286
:1059400010D06FF480634B612023026380F83D30F8
:1059500080F83E20036C80F83C2043F0040303648D
:1059600001207047184670472DE9F84606460F4655
:1059700091461D464FEA114A3368BAF1010F0CBF38
:105980005C699C6927EA0404A4B2B4FA84F464094B
:10599000A14501D0002025E06A1CEED0FFF72AFBCC
:1059A000089BC01AA84201D8002DE5D13368BAF18E
:1059B000010F0CBF5B699B6927EA03039BB2B3FA33
:1059C00083F35B099945D7D100232022336386F8FE
:1059D0003D2086F83E30326C86F83C3042F02002A2
:1059E00032640120BDE8F8862DE9F04104460F46F7
:1059F000164698462568686927EA000080B2C0B15B
:105A00006B695A0517D52B6843F400732B606FF44C
:105A100080636B6120220023236384F83D2084F897
:105A20003E30236C43F004032364002384F83C30AD
:105A30000120BDE8F081731CDDD0FFF7DBFAA0EB9D
:105A40000800B04201D8002ED4D123685A6927EA51
:105A5000020292B2002ACDD000232022236384F8D0
:105A60003D2084F83E30236C1343DDE770B50446D7
:105A70000D46164623685B691B0601D500201EE013
:105A80002046FFF757FFC8B96A1CF3D0FFF7B2FAF8
:105A9000801BA84201D8002DECD123685B6913F06C
:105AA0008003E7D12022236384F83D2084F83E3030
:105AB000226C84F83C3042F020022264012070BD48
:105AC0002DE9F0431546026885B0DDE90C7899466A
:105AD000136843F4807313600E463B46CDF8008094
